:040000008031202803
:100008007E1480314E018C1E0A280B2815288C126C
:1000180001304001E2070030E33D0030E43D0030AC
:10002800E53D4E010F1C19281A281E280F108E3185
:10003800722680317E100900803122288731FE2700
:100048008031F9008731FF278031EF00F601F70191
:10005800F8015E308400003085000B3089313E2184
:1000680080314101C101C201C301C40120308400B3
:1000780001308500403089313E2180317E104001B9
:1000880082318C2A2E304001C600782A25304C0651
:1000980003194F28502855284C08893138218031B8
:1000A800782ACA01CB01C9015E2849150130AC077D
:1000B8000030AD3D2C0884002D0885000008303A3A
:1000C8000319592867282C0884002D088500000882
:1000D8008931E6218031031C7228732826294001C2
:1000E800CA01CB010A304001A0000030A1004B0832
:1000F800A3004A08A2008B3138238031400121082F
:10010800CB002008CA002C0884002D0885000008B0
:10011800D03EBA00FF3003180030BB003A08CA07C7
:100128003B08CB3D0130AC070030AD3D2C088400C6
:100138002D08850000088931E62180310318A5289B
:10014800A62876282629C916C917472946088600E9
:100158008701403FC200413FC3000230BA003A085D
:10016800C60742084304031DBA28BB28BF28953098
:10017800C2009130C300C701C801C6280130C707B3
:100188000030C83D4208470784004308483D8500C1
:100198001200031DD028D128C2284B084802031D8D
:1001A800D7284A0847020318DA28DB28E028470836
:1001B800CA024808CB3BE728CA01CB01E728203010
:1001C800893138218031FF304001CA07FF30CB3DEB
:1001D8004A0A031DF3284B0A031DF328F428E328D1
:1001E8000229420884004308850000088931382123
:1001F800803101304001C2070030C33D0130C702E1
:100208000030C83B470A031D0D29480A031D0D2964
:100218000E29F528782A4608860087010108CC00AF
:100228000230BA003A08C6074C30C2000030C3009A
:100238000130C7000030C800D128C030BA003A08E1
:10024800C904472940012D08BB002C08BA00AC0A94
:100258000319AD0A3A0884003B0885000008CC0061
:10026800003A03198B2A583A0319A7283B3A03196D
:100278000F29103A0319AA28063A031921290D3A19
:100288000319A8281829460886008701403FC4009A
:10029800413FC5000230BA003A08C607B129CC016F
:1002A800CC0A05304C06031D5A295B295C29BA295A
:1002B8004C08BA00BB01BA35BB0D71303A0784004F
:1002C80011303B3D80388500003FBC00013FBD0038
:1002D8003D084502031D72293C084402031875298C
:1002E80076297729BA290130BA003A08CC070530AF
:1002F8004C06031D802981295C29BA29CC01CC0A26
:1003080004304C06031D89298A298B29BA294C08EF
:10031800BA00BB01BA35BB0D8D303A0784001130E5
:100328003B3D80388500003FBC00013FBD003D08D3
:100338004502031DA1293C0844020318A429A52944
:10034800A629BA290130BA003A08CC0704304C066D
:10035800031DAF29B0298B29BA294908C039803A29
:1003680003198229403A03195329BA294B08803ABC
:10037800803C031DC1294A084C020318C429C52919
:10038800CE2940014C08BA00BB013A08CA023B0812
:10039800CB3BD1294001CA01CB01491DD429D5291C
:1003A800EB294A084B040319DA29DB29002A3030E3
:1003B800893138218031FF304001CA07FF30CB3DF9
:1003C8004A084B04031DE929EA29DB29002A4A08BF
:1003D8004B040319F029F129002A203089313821EA
:1003E8008031FF304001CA07FF30CB3D4A084B043B
:1003F800031DFF29002AF1294C08C1006E2A0A3082
:10040800A7000030A8004108BA00BB01BA35BB0DEF
:1004180071303A07840011303B3D80388500003F39
:10042800A000013FA1004508A3004408A2008D31A7
:100438006625803140012108AA002008A9008C31D6
:10044800C424803140012708303ECC006A2A410884
:10045800BA00BB01BA35BB0D8D303A0784001130A4
:100468003B3D80388500003FA000013FA1004508C2
:10047800A3004408A2008D31662580314001200880
:100488000F39BE00C91A492A4A2A4F2A4430BF00E8
:100498009130C000532A3330BF009130C00040086B
:1004A800BB003F08BA003E083A0784003B0803181F
:1004B8003B0A85000008CC006A2A4908C039803AFE
:1004C80003192B2A403A0319032A6A2A4C0889314E
:1004D80038218031FF304001BA003A08C107410A8B
:1004E800031D772A782A612A40012D08BB002C08B1
:1004F800BA00AC0A0319AD0A3A0884003B08850023
:100508000008CC004C08031D8A2A8B2A4A280800B8
:100518008931792182318931BA2182318B31BB23EA
:100528008231A3304001DC005530890B992ADC0B5D
:10053800992A7E0195010F3095008B170B17893189
:10054800C72182318B31192382311E304001AC0022
:100558009130AD0080314620823184304001AC00BA
:100568009130AD006630AE009130AF00803146204A
:1005780082318B319A23823101308C315C24823173
:1005880013304001A40001308D312F2582318A318A
:1005980043228231400123084101A700400122087B
:1005A8004101A600400121084101A50040012008A1
:1005B8004101A40027084001A30041012608400189
:1005C800A200410125084001A10041012408400181
:1005D800A000410144084001A7004101430840012F
:1005E800A600410142084001A5004101410840011F
:1005F800A4008E31C226823140012308031D0F2B2F
:100608002208031D0F2B883020021330213B031CC6
:100618000E2B0F2BCB2A41012708C4002608C30044
:100628002508C2002408C10000308F311727823105
:100638008D31E825823140012D3086000030870059
:10064800B5308400003085000C30DC0016001A003C
:10065800DC0B2A2BCA30AC008630AD0041013608CD
:100668004001AF00410135084001AE0041013808A2
:100678004001B100410137084001B00041013A088A
:100688004001B300410139084001B20041013C0872
:100698004001B50041013B084001B40041013E085A
:1006A8004001B70041013D084001B6004101400842
:1006B8004001B90041013F084001B800803146209F
:1006C800823111304001DC003A30890B692BDC0B98
:1006D800692B000001308F31172782318E312D268A
:1006E800823140012D30860000308700A930840017
:1006F800003085000C30DC0016001A00DC0B802B63
:100708003230AC008630AD0041012A084001AF000C
:10071800410129084001AE0041012C084001B10007
:1007280041012B084001B00041012E084001B300EF
:1007380041012D084001B200410130084001B500D7
:1007480041012F084001B400410132084001B700BF
:10075800410131084001B600410134084001B900A7
:10076800410133084001B8008031462082318B13A3
:1007780041013608F4000030893166218231410197
:100788003508F40001308931662182314101380889
:10079800F400023089316621823141013708F400C2
:1007A800033089316621823141013A08F40004306E
:1007B80089316621823141013908F40005308931D7
:1007C8006621823141013C08F400063089316621F6
:1007D800823141013B08F4000730893166218231BA
:1007E80041013E08F4000830893166218231410117
:1007F8003D08F40009308931662182314101400801
:10080800F4000A3089316621823141013F08F40041
:100818000B308931662182310A30F4000C3089317D
:10082800662182314101A80128084001DC00DD0170
:10083800DC35DD0D66305C07840011305D3D8038A5
:10084800850000084101A10028084001DC00DD0105
:10085800DC35DD0D67305C07840011305D3D803884
:10086800850000084101A200A3014001AC0110303D
:10087800AD000030AE00A1308431612482314001E6
:100888002C084101A0002008F4002808393E8931CD
:100898006621823101304001DC005C084101A80773
:1008A80005302802031C592C5A2C182C8B17893117
:1008B8008D218231CB2A803120284001B9004001A6
:1008C8003908860087010108BA000130B0003008F5
:1008D800B9073A088A31572284310318742C762CC8
:1008E8004001632C00304001B8000030B7000030F0
:1008F800B6000030B500B4012D303A06031D852C32
:10090800862C922CB401B40A3908860087010108A4
:10091800BA000130B0003008B907992C2B303A06DC
:10092800031D972C982C992C882C30303A06031DDF
:100938009E2C9F2CD92C3908860087010108BA0003
:100948000130B0003008B9072D082E040319AD2C6A
:10095800AE2CB52C10302D062E04031DB42CB52C4E
:10096800CF2C78303A060319BA2CBB2CC12C58303E
:100978003A06031DC02CC12CCF2C1030AD0000301E
:10098800AE003908860087010108BA000130B000BE
:100998003008B907D92C2D082E04031DD42CD52CCA
:1009A800D92C0830AD000030AE002D082E04031DF0
:1009B800DE2CDF2CE32C0A30AD000030AE003A0804
:1009C8008A31DD228431031CEA2CEB2CF42C400103
:1009D8003A088A311C228431C93E4001BA00002DF0
:1009E80040013A088931E6218431031CFC2CFD2C96
:1009F800412D30304001BA022E08803A803C031D58
:100A0800072D2D083A02031C0A2D0B2D0C2D412D04
:100A180040013A08B000B101B201B3012D08A000AD
:100A28002E08A100890D893B8909A200A300380876
:100A3800A7003708A6003608A5003508A4008C31A1
:100A48009024843140012008B0072108B13D2208D4
:100A5800B23D2308B33D3308B8003208B700310867
:100A6800B6003008B5003908860087010108BA00C9
:100A78000130B0003008B907E32C40012C080319F5
:100A8800462D472D4D2D2C08860087013908FF3E3D
:100A9800810034080319512D522D622D3509AC00FF
:100AA8003609AD003709AE003809AF00AC0A0319A2
:100AB800AD0A0319AE0A0319AF0A6A2D3808AF0048
:100AC8003708AE003608AD003508AC000800400114
:100AD800D3005308D600D701D801272EA230AC0086
:100AE8009130AD005808AF005708AE00803146205D
:100AF80085314001D901DA0159085707CF005A0852
:100B0800583DD0004E085002031D8C2D4D084F0251
:100B180003188F2D902DA92DA830AC009130AD0071
:100B280057085607CF0059084F07D00050088600CD
:100B3800013087000108D100D2015108AE005208E7
:100B4800AF00803146208531B02DAE30AC009130F9
:100B5800AD0080314620853101304001D907003091
:100B6800DA3D00305A02103003195902031CBD2D1A
:100B7800BE2D802DAF30AC009130AD0080314620C5
:100B880085314001D901DA0159085707CF005A08C1
:100B9800583DD0004E085002031DD42D4D084F0279
:100BA8000318D72DD82D0D2E57085607CF005908F2
:100BB8004F07D000500886000130870001088931AE
:100BC800F82185310318E92DEA2DF02D2E3040014A
:100BD800D4000030D500022E400157085607CF0038
:100BE80059084F07D00050088600013087000108D7
:100BF800D100D2015108D4005208D500B230AC005F
:100C08009130AD005508AF005408AE008031462041
:100C1800853101304001D9070030DA3D00305A02F1
:100C2800103003195902031C1A2E1B2EC82DC1306F
:100C3800AC009030AD008031462085311030400145
:100C4800D7070030D83D4E085802031D2D2E4D08F9
:100C58005702031C302E312E722D0800433468349D
:100C680061346E346E3465346C342D344634353426
:100C78002D343434303435342D343434323435343E
:100C88006E346D343A342034253475342C342034A1
:100C98004334683461346E346E3465346C342D34C6
:100CA800463436342D343434333435342D343434F6
:100CB800353435346E346D343A3420342534753453
:100CC8002C3420344334683461346E346E346534E3
:100CD8006C342D34463437342D343434373430348E
:100CE8002D343434393430346E346D343A3420345D
:100CF800253475342C3420344334683461346E34EC
:100D08006E3465346C342D34463438342D343534EF
:100D1800303435342D343534323435346E346D3422
:100D28003A342034253475342C3420344334683430
:100D380061346E346E3465346C342D3443344C3441
:100D48004534413452342D3443344C3445344134E1
:100D580052343A342034253475342C342034433416
:100D6800683461346E346E3465346C342D344E34EA
:100D7800493452342D344E34493452343A342034C0
:100D88002534753420340D340A340034433468343F
:100D980061346E346E3465346C342D3446343134F9
:100DA8002D343434303435342D343434323435340D
:100DB8006E346D343A342034253475342C34203470
:100DC8004334683461346E346E3465346C342D3495
:100DD800463432342D343434333435342D343434C9
:100DE800353435346E346D343A3420342534753422
:100DF8002C3420344334683461346E346E346534B2
:100E08006C342D34463433342D3434343734303460
:100E18002D343434393430346E346D343A3420342B
:100E2800253475342C3420344334683461346E34BA
:100E38006E3465346C342D34463434342D343534C2
:100E4800303435342D343534323435346E346D34F1
:100E58003A342034253475342C34203443346834FF
:100E680061346E346E3465346C342D344634353424
:100E78002D3443344C344534413452343A342034DC
:100E8800253475342C3420344334683461346E345A
:100E98006E3465346C342D34463435342D344E3448
:100EA800493452343A3420342534753420340D34DE
:100EB8000A34003489315421873172308A312F2223
:100EC8008731F5010030893197218731F5010130EB
:100ED800893197218731F50102308931972187318E
:100EE8004030F50003308931972187310230F50011
:100EF8000430893197218731F501053089319721EF
:100F080087311030F5000630893197218731033059
:100F1800F50007308931972187315030F5000830C6
:100F28008931972187311030F500093089319721AF
:100F380087310330F5000A30893197218731F5016F
:100F48000B30893197218731F5010C308931972190
:100F58008731F5010D308931972187312430F5002B
:100F68000E30893197218731F5010F30893197216A
:100F78008731F50110308931972187315030F500DC
:100F88001130893197218731F50112308931972144
:100F980087310630F500133089319721873189313F
:100FA800AE21873108004001A40001308A316F2248
:100FB800873170308B31582387314001A500F22FDB
:100FC8002508FC39A500FD2F2508FC390138A500A6
:100FD800FD2F2508FC390338A500FD2F2408003A09
:100FE8000319E42F013A0319E82F023A0319ED2FE8
:080FF800FD2F0800013407344D
:10124C0075084001EA007408E900080075084001BF
:10125C00EE007408ED00080075084001EC007408FD
:10126C00EB000800F50075088931832189310800ED
:10127C00640080010131890B3F2900341030F500E6
:10128C00AF308B31792389310800623051018D00E8
:10129C008F019101023093009201080043011B144D
:1012AC001B1859295A2956294E010F1108004001C3
:1012BC00A2002208F50081308B3179238931080096
:1012CC00F5007508203E8600013087007408810007
:1012DC0008004F0196019701980199019A019B0111
:1012EC009C019D01080089316F2189318B31FF23CD
:1012FC00893189314B2189310800F4004E010F1ED0
:10130C00882989298429740842019A0008004030F0
:10131C004001CD000030CE00203085316B25893165
:10132C0008004001A00020088A312F22893175085D
:10133C008A312F228931080043011919A629A729BE
:10134C00A2291B081F39031DAC29AD29A2290800AD
:10135C008931A221893143011B151B19B629B729E3
:10136C00B3294E010F11080040304B019F00F330A0
:10137C009D009C014E018C12961680304B019E00F4
:10138C0008007E014E12CE1240011416941628301D
:10139C0043019A009B019901093097000800400114
:1013AC00A2000B302202031CDC29DD29DF290A30C4
:1013BC00A2002208F500AA308B317923893108006C
:1013CC00F500F4013A3075020318ED29EE29F629DF
:1013DC0030307502031CF329F429F629F401F40AC0
:1013EC00740C0800F500F4017F3075020318FF2916
:1013FC00002A082A20307502031C052A062A082A0E
:10140C00F401F40A740C0800F500F4015B30750269
:10141C000318112A122A1A2A41307502031C172AA2
:10142C00182A1A2AF401F40A740C0800F5007B300F
:10143C0075020318222A232A2D2A61307502031CF7
:10144C00282A292A2D2ADF30F4007408F50575089E
:10145C000800F4007408430196004E010F1D372A52
:10146C00382A332A0F1143011B1F3D2A3E2A412AD9
:10147C001B150030422A013008008B13400165080F
:10148C00A7006408A6006308A5006208A4008B17D7
:10149C002708A3002608A2002508A1002408A00004
:1014AC000800F500F401F40A2030750603195F2AD0
:1014BC00602A6D2A0E3075020318652A662A6C2A7A
:1014CC000930750203186B2A6C2A6D2AF401740C0E
:1014DC0008004001A200A9308B3158238A31400109
:1014EC00A3002203031D7B2A7C2A802A23081038A0
:1014FC00A300832A2308EF39A3002308F500A930A1
:10150C008B3179238A31080040012208A600230878
:10151C00A5002608F500CA308B3179238A314001A9
:10152C002508F500CB308B3179238A31A33040016B
:10153C00A4005530890BA02AA40BA02A0800400156
:10154C00A20080308B3158238A314001A300220342
:10155C00031DB12AB22AB62A23081038A300B92ACF
:10156C002308EF39A3002308F50080308B31792351
:10157C008A310800F40043019B154E010F1DC72A48
:10158C00C82AC32A0F1143011608F5007418CF2A74
:10159C00D22A43019B16D42A43019B121B164E01DF
:1015AC000F1DD92ADA2AD52A0F1175080800400117
:1015BC00A100A001A00A7B3021020318E62AE72A29
:1015CC00ED2A613021020318EC2AED2AF72A2108B2
:1015DC008A310A228A310318F42AF52AF72A4001A3
:1015EC00A0014001200C08004001A200BE308B314C
:1015FC0058238A314001A3002203031D062B072B1D
:10160C000A2B23080438A3002208031D0E2B0F2BD2
:10161C00122B2308FB39A3002308F500BE308B31B5
:10162C0079238A31080043018F0136309000013054
:10163C009100D0308D00FF308E004E010F10191428
:10164C00F5017508203E86000130870081010130CC
:10165C00F4007408F50740307502031C362B372B49
:10166C00272B0800F401F5014001201C3E2B3F2BD9
:10167C00432B2208F4072308F53D0130A235A30DB6
:10168C00890B442B0130A136A00C890B492B200867
:10169C002104031D522B532B3A2B7508A1007408FF
:1016AC00A00008004001A000893154218B31723018
:1016BC008A312F228B31400120088A312F228B3125
:1016CC00893154218B3173308A312F228B31013087
:1016DC008A31C0228B314001A1008931AE218B317E
:1016EC004001210808004001A000893154218B31B0
:1016FC0072308A312F228B31400120088A312F22FF
:10170C008B3175088A312F228B314001A100893130
:10171C00AE218B3140012103031D952B962B982B69
:10172C000130992B0030080000308C312A248B3189
:10173C00643089315D218B31E7304001A2000330E8
:10174C00A3008A318A228B3109308931D5218B3122
:10175C0001308C315C248B3155304001AC00913020
:10176C00AD00803146208B310800083042019F00CB
:10177C0080309D0024309E0019309B009C0100306D
:10178C00F4000030F50089312C218B310030F4004D
:10179C000030F500893132218B310030F4000030FB
:1017AC00F500893126218B314001E8010800400108
:1017BC00A40080308B3158238B314001A7002408C2
:1017CC00031DE92BEA2BF32B2708FD39A200A301FB
:1017DC002208A5002308A600F82B02302704A50038
:1017EC000030A6002508F50080308B3179238B3131
:1017FC000800400198019A0192013F3094007E014B
:10180C00CE01B801B901CF01BA01D0013730BB000C
:10181C003F30D1003F30BC003F30D2001330A0002D
:10182C0010307D01C50014307E01A10011307D0106
:10183C00C60015307E01A4001630A50015307D01C0
:10184C00C9001430C80008004001DA0092308B3116
:10185C0058238C314001DB005B080319362C372CE4
:10186C003F2C5630AC009030AD00803146208C318E
:10187C005B2C01308D31A3258C3140015A08E700D7
:10188C00C430AC009030AD005A08D600D7015608D1
:10189C00AE005708AF005B08D800D9015808B0005B
:1018AC005908B100803146208C3108004001A40059
:1018BC00A50101308A316F228C3170308B31582365
:1018CC008C314001A60074308B3158238C3140018F
:1018DC00A5002403031D732C742C782C26080838BF
:1018EC00A600842C2608F739A60025087F39A50008
:1018FC002508F50074308B3179238C314001260892
:10190C00F50070308B3179238C3100308A316F22A5
:10191C008C31080000304001AB000030AA000030D0
:10192C00A9000030A800201C9C2C9D2CA52C240860
:10193C00A8072508A93D2608AA3D2708AB3D01307C
:10194C00A435A50DA60DA70D890BA62C0130A33629
:10195C00A20CA10CA00C890BAD2C23082204210491
:10196C002004031DBA2CBB2C992C2B08A3002A088D
:10197C00A2002908A1002808A0000800400127089F
:10198C0028040319CA2CCB2CF42CAB01AB0AD72C92
:10199C000130A735A80D890BCF2C0130F500750847
:1019AC00AB07A81FDA2CDB2CCE2C28082A02031D2F
:1019BC00E12C27082902031CE42CE52CE92C270830
:1019CC00A9022808AA3B0130A836A70C890BEA2CDF
:1019DC000130AB02031DF32CF42CDB2C2A08A800DD
:1019EC002908A70008004001AA002A35953E8B3132
:1019FC0058238C314001A400A5012408A600250819
:101A0C00A7002A35963E8B3158238C314001A40017
:101A1C00A5012408A8002508A9002908AC0028085D
:101A2C00AB002B08A500A40126082404AB00270852
:101A3C002504AC0011304001A4003A30890B242D50
:101A4C00A40B242D000040012C08A3002B08A2009D
:101A5C0008004001A6002408031D352D362D382D15
:101A6C00A401A40A0130A40214302402031C3F2D4B
:101A7C00402D422D1330A40001308A316F228D315C
:101A8C0040012603031D4B2D4C2D502D240880386E
:101A9C00A700522D2408A7002708F50074308B31BD
:101AAC0079238D3121304001A5007630890B5C2DD6
:101ABC00A50B5C2D000000308A316F228D3108009F
:101ACC004001A501A6012008210403196E2D6F2DDC
:101ADC009E2DA401A40A7B2D0130A035A10D890BEC
:101AEC00732D0130F4007408A407A11F7E2D7F2DE7
:101AFC00722D0130A535A60D890B802D21082302EE
:101B0C00031D8A2D20082202031C8D2D8E2D932D52
:101B1C002008A2022108A33B25140130A136A00CF9
:101B2C00890B942D0130A402031D9D2D9E2D7F2D1C
:101B3C002608A1002508A00008004001CF00803035
:101B4C008B3158238D314001D5004F030319AF2D34
:101B5C00B02DB92D5508FE39CD00CE014D08D10060
:101B6C004E08D200BE2D01305504D1000030D200F9
:101B7C005108D5005508F50080308B3179238D3113
:101B8C004001D00050030319CC2DCD2DD22D9C300B
:101B9C00D3009130D400D62D7B30D3009130D400BB
:101BAC000630AC009130AD005408AF005308AE00C5
:101BBC00803146208D313030F50000308B31792367
:101BCC008D31080000308C31F9248D31400123080F
:101BDC00BB002208BA0001308C31F9248D31400150
:101BEC002308BD002208BC0002308C31F9248D3151
:101BFC0040012308BF002208BE0003308C31F924B9
:101C0C008D3140012308C1002208C00004308C3102
:101C1C00F9248D3140012308C3002208C20005308D
:101C2C008C31F9248D3140012308C5002208C400F1
:101C3C003A308600003087002D308400003085005B
:101C4C000C30B90016001A00B90B282E0800003011
:101C5C008C31F9248E3140012308BB002208BA00D4
:101C6C0001308C31F9248E3140012308BD0022084B
:101C7C00BC0002308C31F9248E3140012308BF00A6
:101C8C002208BE0003308C31F9248E314001230828
:101C9C00C1002208C00004308C31F9248E3140017F
:101CAC002308C3002208C20005308C31F9248E3180
:101CBC0040012308C5002208C4003A3086000030D9
:101CCC0087002D308400003085000C30B9001600E0
:101CDC001A00B90B6D2E0800003043010F190130AA
:101CEC00F1000030111B0130F200720803197F2E35
:101CFC00802E822EF601C12E71080319862E872E96
:101D0C009A2E7708203E86000130870001088C004F
:101D1C000130F0007008F70740307702031C972E53
:101D2C00982EC02EF701C02E0C08F300B52EF6012C
:101D3C00F60AC02E73083F39F7000230F600C02EA9
:101D4C00393077020318AB2EAC2EB32E7708203E19
:101D5C0086000130870073088100F601C02E7608DA
:101D6C00003A03199D2E013A0319A02E033A0319C8
:101D7C00A62EC02E10160800400127082302031DB2
:101D8C00D12E26082202031DD12E25082102031D67
:101D9C00D12E24082002031CD42ED52EEA2E240882
:101DAC002002A8002508213BA9002608223BAA00F6
:101DBC002708233BAB002B08B3002A08B2002908E4
:101DCC00B1002808B0000E2F2008A8002108A90097
:101DDC002208AA002308AB002409AC002509AD0099
:101DEC002609AE002709AF002C08A8072D08A93D2D
:101DFC002E08AA3D2F08AB3D01302807B00000305B
:101E0C00293DB10000302A3DB20000302B3DB3001B
:101E1C003308A3003208A2003108A1003008A0004A
:101E2C0008004001CE00A9308B3158238F3140017E
:101E3C00CF004F08EF39CF004F08F500A9308B3198
:101E4C0079238F3100308B31DD238F31893144215F
:101E5C008F3140014E08031D342F352F402F003099
:101E6C00AC009030AD00803146208F318F31872708
:101E7C008F314F2F4E03031D442F452F4F2F2B30E7
:101E8C00AC009030AD00803146208F3187315E2719
:101E9C008F3101308A31A5228F3140016703031D38
:101EAC00582F592F692F8130AC009030AD00803104
:101EBC0046208F3101308A31FA228F31013087313F
:101ECC00D7278F31792F6708031D6D2F6E2F792F30
:101EDC00A330AC009030AD00803146208F31003003
:101EEC008731D7278F3101308B31DD238F31213072
:101EFC004001CD007630890B812FCD0B812F000056
:101F0C000800893154218F3172308A312F228F3160
:101F1C003030F5000030893197218F31F501F50A09
:101F2C000130893197218F31F501023089319721A8
:101F3C008F31F5010330893197218F31F501043050
:101F4C00893197218F314230F50005308931972145
:101F5C008F31F5010630893197218F31F50107302A
:101F6C00893197218F315030F50008308931972114
:101F7C008F31F5010930893197218F31F5010A3004
:101F8C00893197218F31F5010B30893197218F31B0
:101F9C002030F5000C30893197218F310430F50059
:101FAC000D30893197218F31F5010E308931972110
:101FBC008F313030F5000F30893197218F31F50199
:101FCC00F50A1030893197218F315030F5001130DE
:101FDC00893197218F31F5011230893197218F3159
:101FEC000630F5001330893197218F318931AE21BC
:101FFC008F310800733474346134723474345F3448
:10200C006D346534613473347534723465346D34C5
:10201C0065346E3474345F346334683461346E34D4
:10202C006E3465346C343A342034463431344634AE
:10203C00343443346C346534613472344E34493442
:10204C00523420340D340A34003473347434613413
:10205C00723474345F346D34653461347334753474
:10206C00723465346D3465346E3474345F34633477
:10207C00683461346E346E3465346C343A342034E4
:10208C00463435344634383443346C346534613436
:10209C0072344E344934523420340D340A34003402
:1020AC0043346F3475346C34643420346E346F3490
:1020BC0074342034663469346E34643420344134DE
:1020CC00533437343334343431342C3420345434A2
:1020DC0072347934203474346F3420346634693477
:1020EC006E346434203461346734613469346E3452
:1020FC000D340A34003461347334373433343434AB
:10210C0031345F34733474346134723474345F3406
:10211C006D346534613473347534723465346D34B4
:10212C0065346E3474343A342034533459344E3468
:10213C00533420340D340A3400346134733437345E
:10214C003334343431345F34733474346134723432
:10215C0074345F346D346534613473347534723473
:10216C0065346D3465346E3474343A3420345334FD
:10217C0050344D3420340D340A340034413453344B
:10218C0037343334343431342D34473450344934C7
:10219C004F343A342034253475342C3420344334C1
:1021AC004834493450342D34493444343A3420348E
:1021BC0025343234583420340D340A34003453343A
:1021CC007034653463347434723461346C34203458
:1021DC0069346E34743465347234723475347034DA
:1021EC0074342034673465346E346534723461343D
:1021FC00743469346F346E3421340D340A34003441
:10220C0049346E3469347434693461346C346934EF
:10221C007A346134743469346F346E3420346934F4
:10222C0073342034253473343F340D340A34003481
:10223C00483465346C346C346F3420344C34693429
:10224C006734683474342034533465346E347334E6
:10225C006F3472340D340A34003430343134323447
:10226C003334343435343634373438343934413407
:10227C0042344334443445344634003430343134FD
:10228C0032343334343435343634373438343934F6
:10229C0061346234633464346534663400346134DC
:1022AC00733437343334343431345F3469346E340A
:1022BC00693474342E342E342E340D340A340034F4
:1022CC0041344634303431343734413430343034A2
:1022DC00303431340034013400340A340034643482
:1022EC000034E83403341034273463346F346D34E1
:1022FC0070346C34653474346534003473346E3437
:10230C003A342034253473340D340A340034013417
:10231C0000341034003400340134003410342834C8
:10232C006E3475346C346C34293400347734723434
:10233C006F346E34673400342534303438347834A8
:10234C003A34003420342534303432347834003488
:0E235C0020342034203400342534633400341F
:020000040001F9
:08000000FF3FFF3FFF3FFF3F00
:0A000E00EC17FE3F9F3FFF3FFE3F4F
:00000001FF
